:020000040800F2
:100000000008002059130008950C0108950C010800
:1000100057190108950C0108950C0108950C010869
:10002000950C0108950C0108950C0108950C010828
:10003000950C0108950C0108950C0108950C010818
:10004000950C0108950C0108950C0108950C010808
:10005000950C0108950C0108950C0108950C0108F8
:10006000950C0108950C0108950C0108950C0108E8
:10007000950C01087D0F00086D0F0008950C010814
:10008000950C0108950C0108658C0008950C010879
:10009000950C0108950C0108E11C0008950C01085D
:1000A000950C0108950C0108791E0008511E0008E6
:1000B000950C0108950C01083DBE000841C80008D8
:1000C0000F2401080B24010821C000081B2401088B
:1000D0001324010819C8000817240108A5C800083E
:1000E000E1C80008950C0108950C0108950C010861
:1000F000950C01083D140108950C0108950C0108A8
:10010000950C0108950C0108950C0108950C010847
:10011000950C0108950C0108950C0108950C010837
:10012000950C0108950C0108950C0108950C010827
:10013000950C0108950C0108950C0108950C010817
:10014000950C0108950C0108950C0108950C010807
:10015000950C0108950C0108171A0108F9F100081F
:10016000950C0108950C0108192A01081F2A01089D
:10017000013800D0FCE7704730B58BB00023069300
:100180000793089309938A4B06938A4906A80CF0B3
:1001900021FC894B186018B30023059305A912F0C0
:1001A00099FA0546002836D0844C8549206811F01C
:1001B00092F910F06CFD10F06BFD824B00937623EA
:1001C000814A8249206811F086F9814A8149206874
:1001D00011F081F92A468049206811F07CF9FEE788
:1001E000764C7749206811F076F910F050FD10F048
:1001F0004FFD744B00936B23734A7449206811F0D0
:100200006AF9764A7349206811F065F974492068E3
:1002100011F061F9FEE7684C724A734B1968206867
:100220000CF070FE0021206811F0EEF80546D8B100
:10023000624C6349206811F04EF910F028FD10F06F
:1002400027FD604B00938B235F4A6049206811F0C3
:1002500042F95F4A5F49206811F03DF92A46634937
:10026000206811F038F9FEE74FF00111524B186881
:1002700012F029FA0546D8B1504C5149206811F0C6
:100280002AF910F004FD10F003FD4E4B0093972364
:100290004D4A4E49206811F01EF94D4A4D492068DB
:1002A00011F019F92A465249206811F014F9FEE7B5
:1002B0003DA3D3E90023CDE900234FF0FF324FF0F7
:1002C000FF333D49086812F038F90546D8B13B4C78
:1002D0003B49206811F0FFF810F0D9FC10F0D8FC71
:1002E000384B0093A023384A3849206811F0F3F8BE
:1002F000374A3849206811F0EEF82A463D4920680F
:1003000011F0E9F8FEE73C4B1B88ADF81030ADF872
:100310000C3004A9284B186812F0F7F80546D8B13C
:10032000264C2749206811F0D6F810F0B0FC10F0E8
:10033000AFFC244B0093B023234A2449206811F0DA
:10034000CAF8234A2349206811F0C5F82A462B49E8
:10035000206811F0C0F8FEE703A9174B186812F0E7
:10036000EAF8054608B90BB030BD144C14492068B2
:1003700011F0B1F810F08BFC10F08AFC114B0093D7
:10038000B523114A1149206811F0A5F8104A114906
:10039000206811F0A0F82A461949206811F09BF84E
:1003A000FEE700BFAFF3008018AC0155E203000088
:1003B0007F0C0108610C010834080020000F0020A8
:1003C000B443010860350108A03301083433010843
:1003D000103401084433010844340108C0330108D3
:1003E000E83301086B0C010808080020703401088C
:1003F000A8340108D03401085C350108FC34010838
:100400002C350108000000002DE9F04F2DED028B86
:1004100091B082460C4693461D46DDE91C231046EA
:1004200019460FF01DFC002800F007814FF0FF3245
:10043000B14BDDE91C010FF03BFC002840F0FD80D2
:100440004FF0FF326FF48013DDE91C010FF012FC56
:10045000002840F0F28000220023DDE91C010FF0AB
:1004600009FC002840F0FE809DED1C7B8DED067B95
:10047000209B13F480630F9301D106231E93DDE9C3
:1004800006010246C1F30A50C1F31303904643F03C
:100490007F5949F44019A0F2FF300FF00FF984A3FF
:1004A000D3E900230FF074F983A3D3E900230EF0FE
:1004B000B9FF06460F460022904B404649460EF0D3
:1004C000AFFF7FA3D3E900230FF062F902460B468A
:1004D000304639460EF0A6FF0FF0F4FB06460FF04B
:1004E000EDF88046894678A3D3E900230FF050F950
:1004F0000022834B0EF096FF0FF0E4FB074674A337
:10050000D3E90023404649460FF042F98046894628
:1005100038460FF0D3F870A3D3E900230FF038F971
:1005200002460B46404649460EF07AFF8046894611
:1005300002460B460FF02CF9CDE90A0107F2FF370E
:1005400000210022CDE908123B05099300230893FE
:1005500042464B46404649460EF064FFCDE90C0149
:1005600042464B4600204FF080410EF059FF804636
:1005700089460022634BDDE90A010FF033FA0022BD
:10058000614B0EF04FFF02460B46DDE90A010FF00A
:1005900029FA00225D4B0EF045FF02460B46DDE9CD
:1005A0000A010FF01FFA02460B46404649460EF07C
:1005B00039FF02460B46DDE90C010FF013FA002269
:1005C000534B0EF02FFFDDE908230FF0E1F88046D2
:1005D000894649EC188BDDE906230FF069FB40B131
:1005E000013E0022484B404649460FF0FBF941ECE2
:1005F000180B06F16303C62B3FD80427209B13F486
:10060000006F44D036A3D3E90023DDE906894046D4
:1006100049460FF043FB00283FD033A3D3E9002322
:10062000404649460FF026FB002836D01E9BB342B9
:1006300025DD9E1B731E1E9323E0209B04931F9BAE
:1006400003931E9B02939DED1C7B8DED007B2B463F
:100650005A462146504600F0CFF811B0BDEC028B4F
:10066000BDE8F08F9FED227B8DED067B1C9B0693F2
:100670001D9B03F100430793FAE60527BEE700231D
:100680001E93209B43F48063209300273E461F9BCC
:100690009F423FD2A3EB07083EE01E9B002BF6D003
:1006A0000F9B002BF3D01E9B013B1E93EFE700BF77
:1006B000FB799F501344D33FB3C8608B288AC63F51
:1006C00061436F63A787D23F71A379094F930A40B3
:1006D0001655B5BBB16B0240EF39FAFE422EE63F2C
:1006E0002D431CEBE2361A3F0000000080842E41AF
:1006F0000000000000000000FFFFEF7F0000F83F57
:100700000000E03F00002C400000244000001840A2
:100710000000F03F4FF00008209B13F0020902D0C8
:100720000FB14FF000083EB153EC182BDDE9060184
:100730000FF058F9CDE9060100220023DDE91C0184
:100740000FF098FA00283DD1209B23F40063049316
:10075000CDF80C801E9B02939DED067B8DED007BFA
:100760002B465A462146504600F046F8002F3FF4EB
:1007700074AF209B13F0200F2CD04FF0450C00F1EC
:1007800001082B46024621466046D04786EAE673BA
:10079000A3EBE67305220592013F04970022039222
:1007A0000A220292F00F019000932B464246214606
:1007B000504611F05CFAB9F1000F3FF44EAF02461B
:1007C0001F9F10E0DDE90601024601F10043CDE97B
:1007D0000623B9E74FF0650CD1E7561C2B4621469E
:1007E0002020D0473246A2EB0B03BB42F5D3104684
:1007F00033E700BF000000002DE9F04F2DED028B24
:1008000095B007900A9192469B46DDE92089229D8A
:1008100042464B46404649460FF022FA002840D057
:100820004FF0FF326FF48013404649460FF022FA32
:10083000002845D14FF0FF329F4B404649460FF00C
:1008400037FA00284BD198A3D3E900234046494604
:100850000FF02EFA00285AD195A3D3E90023404681
:1008600049460FF007FA002851D1002200234046E4
:1008700049460FF0FFF9002857D100230B93249B22
:1008800013F4806F5CD000241F2C5BD8092D59D93C
:1008900004F150036B44302203F8202C013D013455
:1008A000F2E7249B0393239B029303230193834B3F
:1008B00000935B4652460A99079811F0FDF82CE127
:1008C000249B0393239B0293042301937C4B00936B
:1008D0005B4652460A99079811F0EEF81DE1249BF9
:1008E00013F004030FD0774A7BB1042324990391BA
:1008F00023990291019300925B4652460A99079808
:1009000011F0DAF809E1704AEEE70323EEE7249BE1
:100910000493239B03930295CDE900895B465246DD
:100920000A990798FFF770FDF7E042464B46002012
:1009300000210EF075FD8046894601230B939EE74A
:100940000625A0E7404649460FF0BCF906460EF0E2
:10095000B5FE02460B46404649460EF061FD5B4B34
:1009600003EBC50393ED008B53EC182B0EF010FF37
:1009700002460B46CDE908230FF0CCF907460EF0EE
:100980008DFE02460B46DDE908010EF049FD0246E8
:100990000B46CDE9082300224D4B0FF089F950B3E7
:1009A000013738460EF07AFE02460B4651EC180B22
:1009B0000FF06AF908B10136002755BB30460EF03A
:1009C0007DFE02460B46404649460EF029FD07468D
:1009D000884600223E4B0FF04DF938B100223C4BC7
:1009E000384641460FF064F9002842D016F0010F56
:1009F0003FD001363DE00022354BDDE908010FF024
:100A000039F90028D9D117B117F0010FD5D0013726
:100A1000D3E71F2C17D8013D2E4BA3FB0723DB0880
:100A2000194603EB8303A7EB4303621C303304F145
:100A300050000DEB000404F8203C092F02D90F46AA
:100A40001446E6E714461F2C0AD86B1E45B104F184
:100A500050026A44302102F8201C1D460134F2E79E
:100A60001F2C06D804F150036B442E2203F8202CCF
:100A700001341F2C33D8184A82FB0632F317C3EB1C
:100A8000A2031A4603EB8303A6EB4303611C303336
:100A900004F150000DEB000404F8203C1646EAB1C6
:100AA0000C46E6E7AFF300800000000065CDCD41C5
:100AB0000000000065CDCDC1FFFFEF7FD0390108F8
:100AC000D4390108C8390108C4390108E0390108DE
:100AD0000000E03FCDCCCCCC676666660C46249B1C
:100AE00003F00303012B1DD01F2C09D80B9B002BF7
:100AF00035D004F150036B442D2203F8202C01342F
:100B0000249B0393239B029301940CAB00935B46BD
:100B100052460A99079810F0CFFF15B0BDEC028B32
:100B2000BDE8F08F239BB3B10B9B1BB9249B13F043
:100B30000C0F12D0239B013B2393194606E004F1CE
:100B400050036B44302203F8202C01348C42CBD26A
:100B50001F2CF4D9C8E72399F8E72399F6E7249BDB
:100B600013F0040F07D004F150036B442B2203F859
:100B7000202C0134C4E7249B13F0080FC0D004F1EB
:100B800050036B44202203F8202C0134B8E700BF47
:100B90002DE9F04784B005460C46334B1B68ADF891
:100BA00004301B0C8DF80630032201A9282006F022
:100BB000CFF9824618B9504604B0BDE8F08706F078
:100BC000A1F9072202A9282006F0DEF982460028B2
:100BD000F1D09DF809009DF80A3003EB00239DF841
:100BE0000B0000EB03200EF069FD804689469DF85E
:100BF0000C009DF80D3003EB00239DF80E0000EB78
:100C000003200EF05BFD06460F4613A3D3E9002335
:100C1000404649460EF004FC11A3D3E900230EF030
:100C2000E1FE002200230EF0FDFBC5E900010022D9
:100C30000E4B304639460EF0ABFD4FF060420C4B88
:100C40000EF0D0FE00220B4B0EF0EAFBC4E90001CF
:100C5000B1E700BFAFF30080000000009A9939416E
:100C60000000008099996941083B01080000694033
:100C7000FFFF6F410000494010B5054C237833B9A0
:100C8000044B13B1044800E000BF0123237010BDE2
:100C9000280E002000000000B0B1010808B5034B89
:100CA0001BB10349034800E000BF08BD000000007D
:100CB0002C0E0020B0B10108A3F5803A704700BFA8
:100CC000174B002B08BF134B9D46FFF7F5FF002184
:100CD0008B460F461348144A121A11F043FF0E4B6D
:100CE000002B00D098470D4B002B00D098470020D8
:100CF000002104000D000D48002802D00C4800E03F
:100D000000BF0FF0DDF92000290007F0F1FE0FF021
:100D1000B1F900BF00000800000000000000000062
:100D200000080020E80B0020341A0020000000001A
:100D30000000000008B501F01FFD10F042FA264A3D
:100D4000136F23F0070343F00303136701F078FEEA
:100D5000224B9B6A13F0807F03D1214B4FF48032EA
:100D60009A621D4BD3F8202122F0070242F00202C2
:100D7000C3F82021D3F8282122F0070242F0020212
:100D8000C3F82821D3F8402122F0030242F00102E7
:100D9000C3F84021D3F8602122F0030242F001029F
:100DA000C3F86021D3F8402222F0030242F001028E
:100DB000C3F84022D3F8002222F0070242F00102D9
:100DC000C3F80022D3F8082222F0070242F0010201
:100DD000C3F80822002008BD008000500040005ADF
:100DE0000060005A10B51F4B5A6E02F4803203F5B2
:100DF00080514FF480304866586E4FF000434B6688
:100E0000194B596C01F001014AF6CD341C64164BA4
:100E10005B6B13F0010FFAD1144B01245C60124B91
:100E20001B6B13F0010FFAD011B10F4B104919646D
:100E3000002803DB0F4B4FF0004159661AB90D4BE8
:100E40004FF480325A6603F041FF03F0C3FE10F006
:100E5000F1FA03F0EBFEFFF76DFF03F0D3FE04F0B1
:100E60002FFD10BD00800050004009500060095067
:100E70003254FFFF00A0005008B501213A2001F0D4
:100E800071FB024800F002FC08BD00BF1008002002
:100E9000022907D808B5044B1B68186808B1436AD3
:100EA000984708BD704700BF3008002010B59EB0BD
:100EB000234C0DF1580CA646BEE80F00ACE80F001D
:100EC0009EE80F008CE80F00302200210AA811F0E4
:100ED00049FE1C4B0A9301228DF82D2057230C93B9
:100EE0000D9209230F930A2311930DF1200E203444
:100EF00094E803008EE803000DF1080C0023029330
:100F0000039304930593069307938CE803000D2342
:100F10008DF810300E238DF811300B4B05932023E4
:100F200006938DF81C208DF81D20084B00930AAB0A
:100F300016AA6146064804F0AFF81EB010BD00BF07
:100F4000E832010800000A50BC0E0020440E0020C8
:100F5000DC0E002008B50349034804F02FFDFFF71D
:100F6000A5FF08BD24080020B40E002008B50248E3
:100F700010F0F0FA08BD00BFDC0E002008B50248F2
:100F800010F0E8FA08BD00BFDC0E002070B582B09A
:100F900005460E460E4C0F49206810F09CFA0FF0E3
:100FA00076FE0FF075FE0C4B009339230B4A0C496B
:100FB000206810F090FA0B4A0B49206810F08BFA69
:100FC00033462A460949206810F085FAFEE700BF3B
:100FD000000F0020B44301088033010810330108DA
:100FE0003433010840330108443301085C330108FD
:100FF00082B0054B019302AB03EB800050F8043C38
:10100000186802B0704700BF3408002008B50348D4
:101010000FF05AFE02480FF057FE08BD7835010860
:101020009035010808B502480FF084FE08BD00BFE6
:10103000A835010803460B4A107828B10A4A1278ED
:101040009A4202D2002000E00120084A12783AB108
:10105000074A127842FA03F313F0010F00D100207F
:10106000704700BFDC090020DD090020E6190020E0
:10107000DE09002008B5084B01221A70074B002238
:101080001A70074B04221A70064B1F221A7003F0C5
:1010900079FF054B186008BDDC090020E619002027
:1010A000DD090020DE090020000F002038B50F4BBD
:1010B0001B689B68DC891D8A844205D8854203D35E
:1010C0000B4B1880012004E00120FFF7B3FF08B9A3
:1010D000002038BD0FF0DBFD0FF0DAFD2B46224675
:1010E00004490548006810F0F6F9F1E70808002007
:1010F000C4190020C0350108000F0020014B1888DA
:1011000080B27047C419002010B582B00020FFF7EC
:10111000CDFF012801D102B010BD0D4C0D49206852
:1011200010F0D9F90FF0B3FD0FF0B2FD0A4B0093A8
:1011300059230A4A0A49206810F0CDF9094A0A4998
:10114000206810F0C8F90949206810F0C4F9FEE7DA
:10115000000F0020B443010888360108E835010873
:101160003433010854360108443301086436010859
:1011700070B505460C4616468A88896811F0E5FC6C
:10118000E16831B16288A088121A92B2284411F045
:10119000DCFC35600A4B1B780BB9608870BD0320FE
:1011A000FFF748FF0028F8D00FF071FD0FF070FD39
:1011B00062880449044B186810F08DF9EDE700BF10
:1011C000E7190020A0360108000F002070B582B09A
:1011D0001546012311F080FA0446854204D1194BCB
:1011E0001B78FBB902B070BD174E1849306810F07B
:1011F00072F90FF04CFD0FF04BFD154B00934FF4BF
:10120000A373144A1449306810F065F9134A14495D
:10121000306810F060F92B4622461249306810F011
:101220005AF9FEE70320FFF705FF0028DAD00FF098
:101230002EFD0FF02DFD22460B49034B186810F0D0
:101240004AF9CFE7E7190020000F0020B443010856
:1012500024380108C4360108343301083037010846
:1012600044330108503701089C37010870B538B184
:101270000D460646E9B90120FFF7DCFE78B970BDDE
:101280000120FFF7D7FE0028F9D00FF000FD0FF086
:10129000FFFC2A492A4B186810F01DF9EFE70FF000
:1012A000F6FC0FF0F5FC2749254B186810F013F9F0
:1012B000E5E70320FFF7BEFE08B900240FE00FF0BA
:1012C000E6FC0FF0E5FC20491D4B186810F003F90F
:1012D000F3E70320FFF7AEFEB0B90134A4B2AC428D
:1012E0001DD26B1E9C42F4D00320FFF7A3FE002802
:1012F000F3D00FF0CCFC0FF0CBFC325D1349104B58
:10130000186810F0E8F8E8E70FF0C1FC0FF0C0FC37
:10131000325D0F490A4B186810F0DDF8DDE7032055
:10132000FFF788FE0028AAD00FF0B1FC0FF0B0FC48
:101330000849034B186810F0CEF8A0E7C037010841
:10134000000F0020DC370108F437010818380108C5
:1013500010380108B443010808B500F02DF8124A0E
:101360000AE01068516850F8230041F82300013367
:1013700091688B42F5D30C320C4B9A4201D2002378
:10138000F6E70B4A08E01168002041F8230001331A
:1013900051688B42F7D30832064B9A4201D20023A0
:1013A000F6E7FFF78DFC00BFB8B10108C4B1010832
:1013B000C4B10108C4B1010810B4144B144A9A60B6
:1013C000D3F8882042F47002C3F88820114A4FF401
:1013D00080419166104901F500524FF0FF301066D0
:1013E0000E4850660220C3F8D000BFF34F8FBFF302
:1013F0006F8F0B480124C0F880414FF44033D36015
:1014000004600B615DF8044B704700BF00ED00E025
:101410000000000800900050008000447FFF7F0122
:1014200000E100E0014B1868704700BF5008002041
:1014300008B5094B1B6F03F00703022B04D0032BE5
:1014400005D0012B06D0FEE7FFF7ECFF03E0034BCE
:10145000186800E0024808BD0080005054080020D1
:10146000002D310108B5FFF7E3FF054B1B6FC3F3F8
:1014700003330133B0FBF3F0024B186008BD00BF2B
:10148000008000504C0800200048704700B4C4049D
:10149000014B1868704700BF5408002008B5064B80
:1014A0001860064B1B6F03F00703032B00D008BD29
:1014B000FFF7D8FFFBE700BF540800200080005072
:1014C00000487047002D31014FF0B4439868C0F3D5
:1014D00004400C2808D8DFE800F0090707070707D1
:1014E00022181A071C1E2000002070474FF0B4433A
:1014F0009B6803F04073B3F1807F12D0B3F1007F9B
:1015000011D003B17047094870470948704709482E
:1015100070470948704709487047094870470948AB
:101520007047094870470948ECE700BF00093D00D3
:101530000024F400C0EA210180BA8C010048E801CF
:10154000005A6202405DC60080841E0040420F00C7
:10155000014B1868704700BF580800200346064A30
:1015600010680344054A934202D8034A1360704747
:101570004FF0FF30704700BF5C08002000000120E2
:101580000A681378022B00D1704710B5084613790A
:10159000517903EB43031B011433064C1B59CB4019
:1015A00013F0010F0CBF01230023137005F04AFC58
:1015B00010BD00BF30C0035030B583B0054604688D
:1015C00001213A2000F0CEFF002301226179207929
:1015D00002F070F92379627903EB43031B011433A2
:1015E0000F495B58D34013F0010F0CBF01230023B8
:1015F0002370A379022B02D0002003B030BD00F08D
:10160000D1FB2A460749607900F0F4FB0246617974
:10161000207901230193009302F0B8F8ECE700BFB2
:1016200030C003508115000802681378022B12D0D5
:101630001379517903EB43031B01143312481B58F0
:10164000CB4003F0010003469179012904D011B980
:1016500080F00100107070475188490089B20B4337
:1016600043F47F4343F0C0034FF6E0718B4205D053
:101670004FF6DF718B4204D0538070470121117007
:10168000F6E700211170F7E730C00350F0B585B0E0
:1016900005460368B3F1B64F14D03A4A93424BD192
:1016A0002F20012100F05EFF01230A2269792879A9
:1016B00002F000F901230A22E979A87902F0FAF888
:1016C00000261FE02E20ECE72B796A79012707FA24
:1016D00002F22D4C03EB430304EB031303F5015318
:1016E0001A60642004F0B8FE2B796A79974003EB06
:1016F000430304EB031404F582542760642004F0D0
:10170000ABFE0136092EDFDD2B68B3F1B64F15D0E5
:101710002A681C4B9A4222D001238DF800308DF8A4
:101720000130EB680293AB6801932B7C8DF80C3091
:101730006946286802F09AF905B0F0BD124B032201
:10174000C3F8382569792A7942EA0142C3F83C2571
:10175000E979AA7942EA0142C3F84025D8E7A3F51E
:1017600030330322C3F8482569792A7942EA0142D5
:10177000C3F84C25E979AA7942EA0142C3F8502519
:10178000CAE700BF0080065000C0035038B50546C8
:1017900002F012FB054B012806D15C1E23B128463E
:1017A00002F086F92346F6E738BD00BFE093040057
:1017B00083784BB9037842780121914003EB4303CE
:1017C0001B01064AD15070470378427801219140AD
:1017D00003EB43031B01024AD150704740E0035022
:1017E00040D0035083784BB903784278012191406F
:1017F00003EB43031B01064AD1507047037842783C
:101800000121914003EB43031B01024AD150704771
:1018100040D0035040E003500378427801219140CA
:1018200003EB43031B01014AD150704740F00350C2
:1018300002460378407803EB43031B01103305494C
:101840005B58C34003F0010093780BB980F00100AE
:10185000704700BF30C00350F0B585B00C469446C9
:101860009DF83410664A1278002A00F0BD800546C3
:10187000BCF1070F00F2BA800A9A002A00F0B88083
:101880000B9A002A00F0B6800E9AB2F5006F00F3B2
:10189000B38001285BD05B4A02EB0C12127B002A5A
:1018A00000F0AC8000220092019202920392564A0C
:1018B00002EB4C1E002C4FD14FEA4C1600209051E9
:1018C000CEF80400CEF80800CEF80C009EF8020016
:1018D00040F010008EF802009EF8030040F0300047
:1018E0008EF8030021B9C1B241F003018EF8031054
:1018F00000930E9B013B444A4FEA4C1002EB4C1103
:10190000165A63F30E1616520A9B8B600B9B4B60A4
:10191000CB789DF83C2062F38303CB70012D36D049
:10192000109B002B56D0374A4FEA0C1102EB0C13D8
:1019300010985050119A5A6000249C605D73724652
:101940006946604602F0A4FD204605B0F0BD0C9A41
:10195000002AA0D12D48F8E72B4F4FEA4C1607EB91
:101960004C120020B85150609060D060907840F0E8
:1019700010009070D07840F00300D0700029B7D1EB
:1019800007EB4C12C1B241F03001D170B0E70E4606
:101990000A7B42F001020A73D2B242F002020A73D9
:1019A000CA68042161F39F02F26006F1100796E80D
:1019B0000F0087E80F00F2696FF0030161F39F02E7
:1019C000F2610C9B7361012CAAD10B9AB2610C9A43
:1019D0007260A5E7002DA6D10B4B03EB4C139A7850
:1019E0006FF304129A709EE70948AEE70748ACE728
:1019F0000648AAE70548A8E70448A6E70548A4E77B
:101A0000E8190020040F0020840F0020018000F05E
:101A1000028000F0078000F0134B1B78FBB110B57B
:101A20000446F0B10FF0E0FB0023072B13D80F4A58
:101A300002EB0312127B0AB10133F6E723600B4A73
:101A4000190102EB031301241C73002454500FF0FE
:101A5000D1FB204602E00FF0CDFB054810BD054844
:101A600070470548FAE700BFE8190020040F00207E
:101A7000048000F0028000F0018000F038B50FF023
:101A8000B3FB04460023072B06DC0C4A02EB0312CF
:101A9000127B12B90133F6E7002222B120460FF083
:101AA000A9FB074838BD02F095FC0025054B1D70C9
:101AB00020460FF09FFB2846F4E700BF040F0020EC
:101AC000058000F0E81900200F4B1B78BBB110B562
:101AD0000446072815D80FF087FB0C4B03EB0413C3
:101AE0001B7B1BB90FF086FB09480BE0074B03EB90
:101AF000041300241C730FF07DFB204602E0054810
:101B00007047054810BD00BFE8190020040F0020F1
:101B1000068000F0028000F0018000F000B583B084
:101B2000134B1B68019300238DF804300FF05CFB0E
:101B3000104B1B7833B90F4B01221A700FF05AFB70
:101B4000002309E00FF056FB0B480EE00B4A02EBB6
:101B50000312002111730133072BF7DD08238DF8E1
:101B6000073001A802F062FC002003B05DF804FB1E
:101B700034380108E8190020038000F0040F002029
:101B800008B50A4B1B785BB107280BD8084B03EB51
:101B900000131B7B43B1002102F03AFC002008BD7A
:101BA0000448FCE70448FAE70448F8E7E81900208D
:101BB000040F0020028000F0018000F0078000F098
:101BC00008B50A4B1B785BB107280BD8084B03EB11
:101BD00000131B7B43B1012102F01AFC002008BD59
:101BE0000448FCE70448FAE70448F8E7E81900204D
:101BF000040F0020028000F0018000F0078000F058
:101C000008B50A4B1B7853B107280AD8084B03EBD9
:101C100000131B7B3BB102F085FC002008BD05488A
:101C2000FCE70548FAE70548F8E700BFE819002097
:101C3000040F0020028000F0018000F0078000F017
:101C40000F4B1B78A3B1072814D8A9B10D4B03EB98
:101C500000131B7B93B10C4B1B6D012202FA00F0A9
:101C6000184002D00A700020704700230B707047A4
:101C70000648704706487047054870470548704752
:101C8000E8190020040F002000000450028000F03A
:101C9000018000F0078000F00C4B1B7873B110B589
:101CA0000C4607280CD869B1094B03EB00131B7BCA
:101CB00053B102F049FC2070002010BD0548704768
:101CC0000548FAE70448F8E70448F6E7E819002071
:101CD000040F0020028000F0018000F0078000F077
:101CE000F8B5194B1F6D5B6D1F4002D40125002410
:101CF00002E0FEE701346D00072C24D83D42F9D004
:101D0000124B1D652301124AD358002BF2D002EB6F
:101D10000416B1680131B16072682046984780F0BE
:101D20000100C0B2737B012BE4D10028E2D0094B43
:101D300003EB44131A7B6FF341021A731A7F6FF39C
:101D400041021A77D6E7F8BD000004500020045085
:101D5000040F0020840F002010B5044602E020206C
:101D600007E09047DCB194FAA4F00028F7D0B0FA6D
:101D700080F00123834024EA0304094B03EB0013A2
:101D80005A68002AEED0064B03EB00131B7B002B96
:101D9000E7D0034B03EB001399689047E2E710BDCF
:101DA0008410002008B51A2001F02EF928B1084B44
:101DB0004FF08062C3F880211A601B2001F024F9E3
:101DC00028B1034B4FF00062C3F880211A6008BDB0
:101DD00000E100E038B505460C460FF005FA044B6B
:101DE00003EB05135C6000221A730FF003FA38BD91
:101DF00084100020F8B505460F4616460FF0F4F99A
:101E000005F0FC0C104BD3F824140023032B0CD842
:101E1000EC1804F0030444EA0C0421FA04F212F072
:101E2000010F03D00133DBB2F0E7FF24FF2C06D013
:101E3000064B03EB04135F609E6001221A730FF0E0
:101E4000D9F92046F8BD00BF00C00350841000201F
:101E500008B5084BD3F82404D3F82024104000F030
:101E6000553020F0502003F50053C3F82004FFF74D
:101E700073FF08BD00C0035008B5084BD3F8240415
:101E8000D3F82024104000F0AA3020F0A02003F561
:101E90000053C3F82004FFF75FFF08BD00C00350E4
:101EA0004268002A3AD0B2FA82F2C2F11F021F4BF6
:101EB0005B6833B11D4B5B681BB11C4B9B6A002BED
:101EC000F8D11B4B01215960184B5B6813F00203DA
:101ED000FAD11201017A19B302210A43417809B3F8
:101EE00001210A4311498A60427AEAB10222817AC9
:101EF00001B1012313430D4A536202F580520123BD
:101F0000536003784BB1094B5B681BB1074B9B6A6D
:101F1000002BF8D1054B0122DA6070472022C4E77C
:101F20001946DAE71946DCE71A46E0E700400650B2
:101F300000600650164B5B680BB9002827D0144B85
:101F40005B6833B1124B5B681BB1114B9B6A002B72
:101F5000F8D118B10F4B01225A6070470C4B5B68E7
:101F60001BB10B4B9B6A002BF8D1094B0222DA60A4
:101F7000074B5B681BB1064B9B6A002BF8D1064BE5
:101F800001225A60024B5B6813F0020FFAD17047CE
:101F9000004006500050065000600650064B9B6AF9
:101FA00013F0100FFAD1044B1963034B9B6A13F023
:101FB000100FFAD1704700BF004006500B4B5B6812
:101FC0001BB10A4B9B6A002BF8D1084B0222DA6046
:101FD00000221A62054B5B681BB1044B9B6A002B05
:101FE000F8D1024B0122DA60704700BF0040065072
:101FF000024B4FF480321A67704700BF00900050C8
:1020000038B505460C46174BD3F8200100F0070001
:10201000062823D8DFE800F0040A0E16121A1E0064
:10202000012305B1286004B1236038BDFFF7FAF938
:102030000523F6E7FFF72CFA0323F2E7FFF744FA4C
:102040000723EEE7FFF73CFA0223EAE7FFF7EAF996
:102050000623E6E7FFF71CFA0423E2E7002318460D
:10206000DFE700BF0080005038B505460C46164B30
:10207000D3F8283103F00703013B052B20D8DFE814
:1020800003F003131B0F0B17FFF7CCF9052305B162
:10209000286004B1236038BDFFF7C4F90623F6E7D2
:1020A000FFF712FA0723F2E7FFF7F2F90323EEE74F
:1020B000FFF7EEF90423EAE7FFF702FA0223E6E767
:1020C00000231846E3E700BF0080005070B582B0DF
:1020D00006460D4600230193104BD3F8804104F0CF
:1020E0000304022C16D0032C0FD0012C07D000249F
:1020F0000EB1019B336005B12C6002B070BD0021B0
:1021000001A8FFF77DFF0F24F2E7FFF7DDF901904B
:102110000724EDE7FFF7D4F90190E9E700800050CC
:1021200038B505460C460C4BD3F8903203F0030348
:10213000012B05D0022B07D1FFF7C6F9072305E0D5
:10214000FFF7BEF9022301E00023184605B128601D
:1021500004B1236038BD00BF0080005030B583B0AB
:1021600005460C4600230193154BD3F8203203F0AB
:102170000703042B21D8DFE803F0030B11161B0023
:1021800001230DB1019A2A6004B1236003B030BD70
:10219000002101A8FFF768FF1123F2E7FFF794F988
:1021A00001900723EDE70EF078FD01900A23E8E7A0
:1021B000FFF7CEF901900923E3E70023E1E700BF31
:1021C0000080005038B505460C46104BD3F840014E
:1021D00000F00300032815D8DFE800F002080C1017
:1021E000012305B1286004B1236038BD0EF055FD10
:1021F0000A23F6E7FFF7ACF90923F2E70EF050FDEA
:102200000B23EEE700231846EBE700BF00800050E9
:1022100030B583B005460C4600230193144BD3F828
:10222000603203F00703013B032B1FD8DFE803F004
:10223000020E1914002101A8FFF7E2FE0F230DB1D1
:10224000019A2A6004B1236003B030BD002101A8C7
:10225000FFF7B8FF1023F2E7FFF736F901900723E5
:10226000EDE7FFF72DF901900223E8E70023E6E709
:102270000080005030B583B005460C460023019322
:102280000C4BD3F8703203F00303012B09D0022B5F
:102290000DD114230DB1019A2A6004B1236003B05B
:1022A00030BD002101A8FFF78DFF1023F2E70023C6
:1022B000F0E700BF0080005038B505460C46134BD0
:1022C000D3F8000200F0070004281BD8DFE800F074
:1022D00003090D111500012305B1286004B1236025
:1022E00038BD0EF0DAFC0A23F6E7FFF731F90923CF
:1022F000F2E70EF0D5FC0B23EEE7FFF7B3F8800A08
:102300000E23E9E700231846E6E700BF00800050EF
:1023100038B505460C46134BD3F8080200F0070009
:1023200004281BD8DFE800F003090D111500012374
:1023300005B1286004B1236038BD0EF0AEFC0A235D
:10234000F6E7FFF705F90923F2E70EF0A9FC0B23E6
:10235000EEE7FFF787F8800A0E23E9E70023184627
:10236000E6E700BF0080005038B505460C46104B2C
:10237000D3F8400200F00300032815D8DFE800F08E
:1023800002080C10012305B1286004B1236038BD98
:102390000EF083FC0A23F6E7FFF7DAF80923F2E7E9
:1023A0000EF07EFC0B23EEE700231846EBE700BFA0
:1023B0000080005038B505460C460F4BD3F850321C
:1023C00003F00303022B12D0032B08D0012B0AD0F9
:1023D0000023184605B1286004B1236038BD0EF013
:1023E0005FFC0B23F6E70EF058FC0A23F2E7FFF739
:1023F000AFF80923EEE700BF0080005038B505466E
:102400000C46104BD3F8600100F00300032815D8E8
:10241000DFE800F002080C10012305B1286004B1C8
:10242000236038BD0EF039FC0A23F6E7FFF790F879
:102430000923F2E70EF034FC0B23EEE700231846E5
:10244000EBE700BF0080005038B505460C46104B46
:10245000D3F8000100F00300032815D8DFE800F0EE
:1024600002080C10012305B1286004B1236038BDB7
:10247000FFF70EF80323F6E7FFF76AF80923F2E700
:102480000EF009FC0823EEE700231846EBE700BF37
:1024900000800050B0F5207F20D00ED8B0F5007F2E
:1024A00016D020D810B1B0F5C07F04D10F4B186FF3
:1024B000C0F3033018E0002016E0B0F5607F05D1CE
:1024C0000A4BD3F88000C0F301100DE000200BE0B0
:1024D000064BD3F89000C0F3046005E0034B186F7F
:1024E000C0F3802000E000200130704700800050E1
:1024F00038B505460C46174B4FF480329A660020DB
:10250000FFF7C8FF05FB00F0134BDA6902F48032D5
:1025100041F67131D9635B6823F440136CB90F49FC
:10252000884207D800210B430B494B600AB10022B7
:10253000CA6338BD4FF48011F5E7002C07DD084968
:10254000884201D80021EEE74FF48011EBE74FF409
:102550004011E8E70090005000000350005A62026A
:10256000002D3101430905D0012B0ED0022B0ED0D6
:10257000002200E0002200F01F0051B102F580525D
:10258000012303FA00F010607047034AF3E7034A9F
:10259000F1E702F50052F3E76480005068800050D4
:1025A00008B580200EF027FC034B984203D8034B5C
:1025B0004FF480321A6708BD005A620200A0005032
:1025C00000B583B000230193B0F5807F00F0AF80A9
:1025D00011D9B0F5086F00F0B48044D9B0F5286F78
:1025E00000F0C38069D9B0F5306F79D101A900201E
:1025F000FFF796FD75E0802873D8242871D324381E
:102600005C286ED8DFE800F04C4C4C4C4C6D446DAF
:1026100098546D6D6D6D6D6D6D6D6D6D6D986D6DAD
:102620006D39A76D6D6D6D6D6D6D6D6D6D6D6D6DD4
:10263000AC4C6D6D6D676D6D5FB1A277776D6D6D33
:102640006D6D6D6D6D6D6D6D6D6D6D6D6D6D6D6DBA
:102650006D6D6D6D6D6D6D6D6D6D6D6D6D6D6D6DAA
:102660006D6D6D6D7C00B0F5C06F65D00AD9B0F5A9
:10267000E06F70D0B0F5F06F17D101A90020FFF71F
:10268000BDFE2EE0B0F5A06F60D0B0F5B06F04D104
:1026900001A90020FFF71AFD23E0B0F5806F20D1DB
:1026A00001A90020FFF7ACFC1BE0B0F5D06F18D1FA
:1026B00001A90020FFF700FE13E0B0F5186F4FD01E
:1026C000B0F5206F04D101A90020FFF7A1FD08E0BB
:1026D000B0F5106F05D101A90020FFF719FE00E049
:1026E00003D2019803B05DF804FBB0F5386F23D036
:1026F000B0F5406FF5D101A90020FFF7B5FCF0E778
:102700001C4B1B6F03F00703013B032BE9D8DFE8E9
:1027100003F00B02050805230193E2E7032301936D
:10272000DFE708230193DCE702230193D9E701A93E
:1027300000200EF03BFBD4E701A90020FFF742FD8B
:10274000CFE701A90020FFF77FFECAE701A900201B
:10275000FFF704FDC5E701A90020FFF705FEC0E76C
:1027600001A90020FFF726FEBBE701A90020FFF723
:1027700081FDB6E700800050044B4FF480125A668A
:10278000034B4FF480329A62704700BF00900050B4
:102790000050005A38B504468020FFF711FF032887
:1027A00000F0B880644B4FF480125A66634B45F6D4
:1027B0000E02C3F8802003F580524FF0A0619162B1
:1027C00003F500534FF480329A625C4B9B6D13F417
:1027D000803FFAD1594B9B6D13F0804FFAD122689C
:1027E00063681B0543EA0263227B43EA0243627B80
:1027F00043EA0233A27B43EA8213E27B13434F4D49
:102800002B61AB6903F00043226943EA826362698A
:1028100043EA0263227E43EA0243627E43EA0223E2
:10282000A27E1343AB610EF0D8FCAA6B82F4006366
:1028300003F440635340AB630EF0D3FC2B6A23F0E8
:102840000F03E269002A45D111460B43E17E43EABA
:1028500081031343394A1362E369002B3CD1916A27
:10286000374B0B4094F8201043EA411394F82110A1
:1028700043EA011394F8241043EAC10343F480337C
:1028800093622E4B9A6D2F4B9343FAD12B4A02F54C
:1028900080514FF080738B62136923F47003A0683A
:1028A00043EA005313614FF000438B6194F82230E8
:1028B0001BB9254B4FF080729A6294F8233013BBFA
:1028C000214B4FF480329A621C4B9B6D13F0804F6A
:1028D000FAD118E00821B8E7022B1CD0174A916AF8
:1028E000174B0B4094F8201043EA411394F8221040
:1028F00043EA016394F8241043EAC10394F82310D7
:1029000043EA0143936294F825301BB10B4B0F4A05
:10291000C3F8802038BD094D00232B61AB610EF058
:102920005CFC6A6B82F4085303F47F4353406B638F
:102930000EF057FCD2E700BF009000500040005A54
:10294000C7FFFEFE030001000060005AF1A7FFFF71
:10295000014B93F900007047DF090020014B1880FC
:10296000704700BF90090020B0F5207F48D02DD8D7
:10297000B0F5007F39D04CD810B1B0F5C07F24D16C
:1029800010B54C1E0EF030FA0EF014FCFFF730FBC1
:10299000204B196F21F4704141EA04311967FEF7A9
:1029A00061FD1D4BD3F8843013F0100FF9D11A4B91
:1029B000D3F88410C1F38111C1F102010EF0EFFBD5
:1029C00000F02CF8FFF7ECFD10BD7047B0F5607F0C
:1029D0000AD101390F4AD2F8803023F0300343EA9C
:1029E0000111C2F88010704770470139094AD2F8C6
:1029F000903023F0F85343EA0161C2F89010704719
:102A00000139044A136F23F4806343EA812111677B
:102A100070477047008000500040005008B54FF4E8
:102A2000C0700EF0E8F9054B984205D902214FF429
:102A30002070FFF799FF08BD0121F8E780F0FA0246
:102A400008B5FEF70FFD0C4BD3F8843013F0100FD0
:102A5000F9D1094BD3F88410C1F38111C1F10201FE
:102A60000EF09DFB0121002000F03AFBFFF7D6FF9E
:102A7000FFF796FD08BD00BF0040005070B50C4642
:102A8000B0F5807F00F093811FD9B0F5086F00F09A
:102A90000E8240F28380B0F5286F00F09D8240F2F4
:102AA000D080B0F5306F40F0F780022900F0A682A8
:102AB000072940F0A5820221864AD2F8903223F0FD
:102AC00003030B43C2F89032E7E0802800F2E58070
:102AD0002428C0F0E28024385C2800F2DE80DFE8A1
:102AE00010F098009800980098009800DC0083008F
:102AF000DC00A601A400DC00DC00DC00DC00DC0063
:102B0000DC00DC00DC00DC00DC00DC00A601DC001A
:102B1000DC00DC0069002F02DC00DC00DC00DC00F3
:102B2000DC00DC00DC00DC00DC00DC00DC00DC00C5
:102B3000DC0045029800DC00DC00DC00CF00DC009B
:102B4000DC00B7007B02FC01E400E400DC00DC00F8
:102B5000DC00DC00DC00DC00DC00DC00DC00DC0095
:102B6000DC00DC00DC00DC00DC00DC00DC00DC0085
:102B7000DC00DC00DC00DC00DC00DC00DC00DC0075
:102B8000DC00DC00DC00DC00DC00DC00DC00DC0065
:102B9000DC00DC00DC00DC00DC00F000B0F5C06F25
:102BA00000F0458119D9B0F5E06F00F0C981B0F5AA
:102BB000F06F37D10A2C00F052810B2C00F05181BC
:102BC000092C00F04A810021424AD2F8603123F0FA
:102BD00003030B43C2F860315FE0B0F5A06F00F073
:102BE0007C81B0F5B06F11D1072C00F0C6800F2C9E
:102BF00000F0C580022C00D00024364AD2F8803183
:102C000023F003031C43C2F8804146E0B0F5806F17
:102C100043D1023C052C00F2B480DFE804F0B8B4E4
:102C2000BCBEBAB6B0F5D06F37D1093C052C00F266
:102C30001A81DFE814F0220128012401180118018B
:102C40002601B0F5186F00F09181B0F5206F14D116
:102C5000023C0E2C00F2AE81DFE814F0BC01AC01A6
:102C6000AC01AC01AC01B601AC01AC01AC01AC01F2
:102C7000AC01AC01AC01B801BA01B0F5106F0CD1D8
:102C8000093C052C00F20181DFE814F009010F0175
:102C90000B01FF00FF000D0100D270BDB0F5386FD1
:102CA00000F0C580B0F5406FF7D1023C052C00F272
:102CB0003181DFE814F03501370139013B01310181
:102CC00033018B1E062B07D8DFE803F0513F065473
:102CD00006064E000080005000252E4601210220ED
:102CE00000F0B8F90EF080F80EF064FAFFF780F902
:102CF000A94A136F23F0070333431367FEF7B2FBB0
:102D0000A64BD3F8843013F0100FF9D1A34BD3F8AE
:102D10008410C1F38111C1F102010EF040FA0121CA
:102D2000002000F0DDF9FFF779FEFFF739FC002DF8
:102D3000B3D1032CB1D19A4B4FF480329A62994BA4
:102D40009B6D13F0804FFAD1A7E7974B4FF4801299
:102D50005A66944B9D6AC5F3006503F580534FF4A2
:102D600080329A620E46B9E700250426B6E70025B0
:102D70000126B3E700250226B0E703243DE701243E
:102D80003BE700210AE0022108E0042106E00321DC
:102D900004E0052102E0062100E001217E4AD2F88C
:102DA000203123F007030B43C2F8203175E70C29CB
:102DB00023D01ED8A1F10904022C3FF66EAF764B4A
:102DC000596E03F580534FF480325A66774A536A3E
:102DD00043F00103536211F4803F03D1744B4FF46D
:102DE00080325A664FF0E022136923F00403136126
:102DF00053E710297FF451AFE1E7674B596E03F5B4
:102E000080534FF480325A66684A536A23F00103B4
:102E1000536211F4803F03D1654B4FF480325A6600
:102E20004FF0E022136943F00403136135E70A2CE5
:102E30000FD00B2C0FD0092C09D00021564AD2F804
:102E4000403123F003030B43C2F8403125E7022150
:102E5000F4E70121F2E70321F0E70221B4E60121C2
:102E6000B2E60321B0E600214B4AD2F8003223F04B
:102E700007030B43C2F800320FE70221F4E70321F6
:102E8000F2E70421F0E70121EEE70021424AD2F8FF
:102E9000083223F007030B43C2F80832FDE6022193
:102EA000F4E70321F2E70421F0E70121EEE7082926
:102EB0000FD009290FD0032909D00021364AD2F8B2
:102EC000003123F003030B43C2F80031E5E6012192
:102ED000F4E70321F2E70221F0E7073C0A2C07D8C8
:102EE000DFE804F0100614120606060606061600B1
:102EF0000021294AD2F8203223F007030B43C2F8FD
:102F00002032CAE60221F4E70321F2E70421F0E7C8
:102F10000121EEE700210AE0052108E0042106E096
:102F2000032104E0022102E0062100E001211A4A07
:102F3000D2F8283123F007030B43C2F82831ACE65E
:102F40000A2C0FD00B2C0FD0092C09D00021124ACB
:102F5000D2F8403223F003030B43C2F840329CE620
:102F60000221F4E70121F2E70321F0E70A2C0FD058
:102F70000B2C0FD0092C09D00021074AD2F850326F
:102F800023F003030B43C2F8503286E60221F4E734
:102F90000121F2E70321F0E70080005000400050DB
:102FA0000060005A0040005A0090005000C00750D6
:102FB00000A000500021134AD2F8603223F007032A
:102FC0000B43C2F8603268E60421F4E70121F2E71E
:102FD0000221F0E70321EEE7102C0BD0142C0BD1CB
:102FE0000221084AD2F8703223F003030B43C2F8DF
:102FF000703252E60121F4E70021F2E701215BE59E
:10300000002159E5008000504209064B53F8223058
:1030100000F01F0023FA00F080F0010000F0010032
:10302000704700BF00E100E0044A536F23F440738F
:10303000417843EA01235367704700BF00400050C6
:10304000034AD36E23F0300301790B43D3667047F4
:1030500000400050F8B50446204BD3F8843013F0FC
:10306000100FF9D11D4BD3F88430C3F381139C4268
:103070002DD0FEF7DDF90646012C11D00EF0ADF88B
:103080000546164F07F500534FF000725A6620466A
:103090000EF0B6F8621E4FF4806393403B6706E083
:1030A00001210EF07CF8E9E70C4BD3F884300B4B90
:1030B0005B6E13F0007F05D1084BD3F8843013F01A
:1030C000200FF1D028460EF08CF8022C00D0F8BD6D
:1030D000002130460EF063F8F9E700BF00400050D1
:1030E00010B50C46034650B1094A127812B1094A8C
:1030F000934208D921460220FFF7ACFF10BDFEF72E
:1031000097F90346F0E721460120FFF7A3FFF5E713
:1031100084120020005A620208B50278034B1A702C
:1031200001210020FFF7DCFF08BD00BF8412002052
:1031300038B52F4B4FF000425A6603F50B235C6CF9
:1031400004F001044AF6CD321A64E8B9294B5B6BEE
:1031500013F00103FAD1274A556815F0010539D05B
:1031600002F50052012151601A462249096B11F003
:10317000010F04D120498A4201D80132F5E71E49E6
:103180008A422FD81D4625E000231A4A126B12F0FE
:10319000080F04D0184A934201D80133F5E7164AC4
:1031A000934221D8134B03F500522021916203F57D
:1031B000805301225A60002300E001330D4A926AD5
:1031C00012F0200F02D10C4A9342F6D90A4A9342D8
:1031D0000CD8002514B1074B084A1A640FF0AFF958
:1031E000284638BD0725F5E70725F3E70725F1E76A
:1031F00000900050004009503F420F003254FFFF42
:1032000070B5194BDC6E24F0030444F00204DD6E4B
:1032100045F003054AF6E8521A660DF0DEFF064651
:103220000DF0CFFF114A136F23F0070343F00103A2
:103230001367FFF705FC0020FFF77AFF0DF0DEFFB4
:103240000DF0DDFF002303E0074AD466D5660133A5
:10325000032BF9DD044BDC6603F510239B6A304633
:103260000DF0BFFF70BD00BF004000500080005057
:1032700010B51A4B4FF000425A6603F50B235C6CF5
:1032800004F001044AF6CD321A6443785B0043F03F
:103290000103134AD363134B5B6B13F00B0FFAD18B
:1032A000104A536823F4F873817843EA011353609A
:1032B000C178437943EA012393600179837943EA32
:1032C000012313610078FFF733FF14B1054B064A61
:1032D0001A640FF034F9012010BD00BF00900050B7
:1032E00000400050004009503254FFFF10B50F2835
:1032F00000D90F20124B5C6E03F580534FF0004253
:103300005A6603F50B235A6C02F001024AF6CD31DE
:1033100019640C4B5B6B13F0800FFAD109490B6AEF
:1033200023F00F03184308620AB1074A0A64002C0D
:1033300003DB064B4FF000425A660FF000F910BD58
:1033400000800050004009503254FFFF00A00050A0
:1033500010B5134B5C6E03F580534FF000425A6674
:1033600003F50B235A6C02F001024AF6CD311964C1
:103370000C4B5B6B13F0800FFAD10A490B6A23F4F4
:10338000F85343EA002008620AB1074A0A64002C95
:1033900003DB064B4FF000425A660FF0D0F810BD29
:1033A00000800050004009503254FFFF00A0005040
:1033B000084B98420AD0084B984209D003F5804345
:1033C000984201D00020704758207047562070471F
:1033D000572070470000015B00000A50436813F05B
:1033E000010F19D0836813F0010F03D0036913F0A4
:1033F000010F09D00A238363436D13F0500FFBD1F3
:10340000836C13F0030FFBD100F5005301225A60C7
:10341000436813F0020FFBD1042307E000F580534B
:1034200004221A6100F500531A610B46591E002B45
:10343000F4D1202303610023C360836041F20202C0
:10344000426183614FF4A0224262C36103628362DE
:10345000C3624363036500F500520249D16403630C
:10346000704700BFFF3F0D0338B5044615460846B8
:10347000E1B1A36813F0010F4ED06268B0FBF5F024
:10348000013812F001023BD0636D13F0280FFBD11D
:10349000A36C13F0030F0FD1A36C13F0010F2BD10A
:1034A000A36C13F0020F29D1002106E02046FFF79C
:1034B0007FFF0DF0A0FCDCE70521636813F0010F2E
:1034C0001FD0A36813F0010F03D0236913F0010F7D
:1034D00009D00A23A363636D13F0500FFBD1A36CD3
:1034E00013F0030FFBD104F5005301255D60636801
:1034F00013F0020FFBD104E00921DEE70621DCE72F
:103500000021236923F07F4343EA006020610AB36E
:1035100020460DF076FE1DE06368A36803F0E0032B
:10352000402B1DD017D9602B1ED0802B12D1012328
:10353000400105FB03F3B0FBF3F020380B4B03EA2B
:10354000C000636D13F0010FFBD12063636D13F0B6
:10355000010FFBD138BD2BB1202BFBD10823E7E7AE
:103560000623E5E71023E3E70423E1E7F8FF7F0004
:1035700070B504460D461646436823B1636DC3F328
:103580000B03002BFAD12046FFF728FF636923F4D1
:103590004C5323F00F036A7B1343EA8913432A8AAF
:1035A00013436361A36823F0804323F0E2032A7B83
:1035B00013432A7E13436A691343A360AB681BB9A4
:1035C000A36843F00043A360EA69002A71D0A368AE
:1035D000127A43EA8253A360A368EA69927A43EAC3
:1035E0004243A360A368EA69928802F4C04213438D
:1035F000A360A368EA69527843EA8203A360A368E0
:10360000EA69527B43EAC203A360A368EA69927B3A
:1036100043EA0213A360A368EA69927843EA82232B
:10362000A360EA699179D3795B0243EA8123E3607D
:10363000EB691B78012B01D0032B03D1E36843F026
:103640000403E360EB691B78023BDBB2012B4AD930
:103650004A4B9C4264D04A4B9C4263D003F5804362
:103660009C425BD04FF0FF3303F593735B0103F192
:10367000A04303F5703302225A60EB695A7A04F5CD
:1036800080539A62EB695B7A1BB1E36843F4006391
:10369000E360EB69DB7A63B1E36843F40043E36022
:1036A000364B9C4240D0364B9C4244D0354B9C42DA
:1036B00048D03EB196F82030002B4AD004F5805314
:1036C00001221A62052120460DF09BFDAA68002AFE
:1036D0004ED1297820460DF094FDA36CDB4313F402
:1036E000405FFAD170BD254B9C4213D0244B9C42C5
:1036F00012D003F580439C420AD04FF0FF33A6332B
:103700005B0103F1A04303F5703302225A60B4E772
:103710000223F4E70023F2E70123F0E70223A3E703
:103720000023A1E701239FE7EB691B7B03F00F0355
:10373000154A5366B7E7EB691B7B03F00F03124A88
:103740001367B3E7EB691B7B03F00F030E4AD367E4
:10375000AFE7E36923F0090396F82220134396F8B4
:103760002120134343F0010304F58052D361A9E7FC
:1037700069682046FFF778FEABE700BF0000015BF9
:1037800000000A5000400A50009003502DE9F84F05
:103790000C4615461E469DF828809DF82C70072A79
:1037A00044D84FEA8209032303FA09FA00FA09F917
:1037B0000DF013FD384AD2F8001489EA010303EA38
:1037C0000A034B40C2F800340DF00BFD4FF0000A25
:1037D000072D43D8A9004FF0030909FA01F904F0B5
:1037E00003048C400DF0F9FC2B4BD3F80824544013
:1037F00004EA09045440C3F808440DF0F2FC002E1A
:1038000044D0264A0123AB401360B8F1000F3FD0EB
:10381000234A1360012202FA05F5224AC2F8205415
:10382000C7B3A2F6DC321360BDE8F88FA2F1080A34
:103830004FEA8A09032303FA09FB00FA09F90DF09C
:10384000CCFC154AD2F8041489EA010303EA0B03FD
:103850004B40C2F804340DF0C4FCB9E74FEA8A0AC1
:103860004FF0030909FA0AF904F0030404FA0AF410
:103870000DF0B3FC084BD3F80C24544004EA0904BF
:103880005440C3F80C440DF0ACFCB8E7064AB9E765
:10389000064ABEE7064AC6E700C0035010D40350EC
:1038A00014D4035000E0035010E4035014E4035018
:1038B00024E403502DE9F84F04460E461F46904677
:1038C0003AB183B301228A4000EB400109012C4B3D
:1038D0005A50072E2FD804EB44094FEA091909F171
:1038E0000409DFF8A4A0B3000F2505FA03FB08FACA
:1038F00003F50DF072FC59F80A305D4005EA0B053E
:103900005D4049F80A500DF06CFCB8F1000F08D189
:103910006FB3012101FA06F604EB44042401184BAD
:103920001E51BDE8F88F01228A4000EB40010901D9
:10393000144B5A50CDE704EB44052D010C35DFF84C
:103940004890A6F108039B000F2202FA03FA08FA36
:1039500003FB0DF042FC55F809308BEA030202EA42
:103960000A025A4045F809200DF03BFCCDE7012141
:1039700001FA06F604EB44042401024B1E51D0E781
:1039800040D0035040E0035030C00350114BD3F8F7
:10399000302422EA0002C3F83024D3F83024014056
:1039A0000A43C3F83024D3F82C240243C3F82C2450
:1039B000A3F56033DB6E03F03003202B06D0064AFC
:1039C000D36E23F0300343F01003D366034BC3F8E8
:1039D0002004704700C003500040005000E0035036
:1039E00002B970472DE9F04105460C46174603F031
:1039F0000308836823F4407383604FEA08260DF0C0
:103A0000ECFBAB685E4006F440765E40AE600DF0C5
:103A1000E8FB2CB9B5F1B64F19D0124B9D421BD023
:103A2000AB68114B13F8083003FB07F26AB1A4EB43
:103A3000C7031344013BB3FBF2F3013BAA6812F046
:103A4000020F01D003B90123AB61BDE8F0812E2044
:103A50000DF0D1F90446E3E72F200DF0CCF9044630
:103A6000DEE700BF008006503838010838B504464C
:103A70000D460023036400F500530C4ADA6300F19D
:103A800008034A7872B903F5805302221A602B7B2F
:103A9000AA6869682046FFF7A3FF297820460DF041
:103AA0000DFC38BD03F50053EFE700BFFFFF1F001B
:103AB000B0F1B64F19D0A84B984240F07681A74B91
:103AC00030B49C68C26B12F4C06F10D11978082909
:103AD00000F26381DFE811F019003F006E008D00F5
:103AE000AF00CF00F800110155019D4BE8E712F43B
:103AF000007F04D0FD225A7009221A7013E012F4DC
:103B0000806FF9D0FE225A70F6E7618811F0100F2D
:103B100017D02288120A02F0060242F0F0020121B8
:103B200019704263C1601A78092A40F0418100226D
:103B3000026493F90120012A00F0348193F9010015
:103B400037E1248804F0FE04224611F0020FE6D08B
:103B500044F00102E3E712F0800F18D112F0400F99
:103B6000E1D000F500524021D163628812F0100FBD
:103B700018D112F0020F1AD007221A701A7904EB2A
:103B8000C2042289012ACED10822C260CBE700F507
:103B900000528021D163FF225A7008221A7002223B
:103BA000C260C0E702221A7022784263BBE7052296
:103BB0001A7087E712F0800F0DD112F0400FB2D0CB
:103BC00000F500524021D163628812F0020F0DD03F
:103BD00003221A7076E700F500528021D163FF229C
:103BE0005A7008221A700222C2609CE705221A70DD
:103BF00068E7618811F0100F16D02288120A02F0CF
:103C0000060242F0F00211F0040F07D042F0010268
:103C1000197904EBC1042189012909D00421197003
:103C20000121C16042637EE7228802F0FE02EAE7DA
:103C30000821C160F2E712F0800F0ED112F0400FA0
:103C40003FF471AF00F500524021D163628812F059
:103C5000040F0DD007221A7065E700F5005280218D
:103C6000D163FF225A7008221A700222C2605AE7FA
:103C700005221A7026E759881A7904EBC20CBCF8A1
:103C800008C0614516D3002159800132D2B21A71A1
:103C9000618811F0040F0AD111F0010F02D1012A3D
:103CA0007FF610AF08221A700222C2603BE703229F
:103CB0001A7007E704EBC20252684C1C5C80525C2D
:103CC000426306221A702EE712F0800F0AD112F01A
:103CD000400F3FF428AF00F500524021D163052288
:103CE0001A70EFE600F500528021D163FF225A706E
:103CF00008221A700222C26015E712F0200F3FF46A
:103D000012AF1A7904EBC2021289416A5FFA81FC90
:103D1000456914492940B1F5003F16D000F500511E
:103D20002025CD6359888A4207D91D7904EBC50443
:103D300064684D1C5D8004F801C059888A4213D81C
:103D400008221A700222C260EDE6416A00F50051B5
:103D50004FF40055CD63E1E7008006509412002037
:103D600088120020200002000421C160012A7FF691
:103D7000DAAE5988013A91427FF4D5AE0822C2608A
:103D8000D1E612F4807F3FF4CEAE00F500524FF43E
:103D90008071D16309221A70C5E6FB225A7009228C
:103DA0001A70C0E600225A70C8E66FF00300704730
:103DB000012030BC704700BF10B50446B0F1B64FCB
:103DC0002CD01C4B98422BD11B4B226912F0010FB7
:103DD00001D02022E2604A8812F0020F01D0088947
:103DE00008B312F0040F01D00A8AFAB100221A7047
:103DF000012058705A801A719960C023E3602046F0
:103E00000DF051FA04F500530C4ADA63236C43F4C5
:103E1000FC6323642046FFF74BFE10BD084BD4E73C
:103E20006FF00300F9E76FF00300F6E76FF00300AF
:103E3000F3E700BF0080065094120020FFFF1F0030
:103E400088120020436913F0807FFBD100F50050F9
:103E500001234360024B5B6813F0020FFAD17047F5
:103E600000400059F8B505460E461446FFF7EAFF34
:103E7000337803F007037278EAB108221343B2786B
:103E8000120102F070021343F278B2B14FF4807263
:103E90001343C5F88030EB6A23F01703327902F040
:103EA000070213437279120102F010021343EB620E
:103EB0004FF0000C0BE00022E0E70022E8E70022D0
:103EC00013430CF1280245F822300CF1010C194B78
:103ED0009D4214D00027BC4513D20CEB8C03E11893
:103EE000E35C4A7843EA02238A78120402F48032BF
:103EF0001343CA78002AE2D04FF40032E0E71027DB
:103F0000E9E728460DF0E4F900210B4600E0013313
:103F1000BB4209D203EB830222441279002AF6D075
:103F200001229A401143F2E7A961B3790BB108234A
:103F3000EB60F8BD0040005908B50B4669B103F5C8
:103F4000742303F23F230E48A0FB0330800C01389A
:103F50007F2828BF7F20C0B208BD2A200CF04BFF6D
:103F6000034650B1074A9042E9D9074A9268C2F322
:103F700002720132B0FBF2F3E1E70123DFE700BF99
:103F800083DE1B43005A62020040005910B50B4CFF
:103F90008C4228BF0C4610465AB12044431EB3FB46
:103FA000F4F0A34200D30138032800D90320C0B2A3
:103FB00010BD2A200CF01FFFEFE700BF005A62027D
:103FC00010B5BBB90F4C8C4200D30C46A2B19DF882
:103FD00008000130B2FBF0F22244013AB2FBF4F0E7
:103FE000A24200D3013840F2FF33984228BF18465E
:103FF00080B210BD044CE6E72A200CF0FCFE02461D
:10400000E5E700BF80969800404B4C002DE9F04F4B
:104010002DED028B83B005460C4617460022C94998
:10402000FFF7B4FF94F80590814500D281462846F9
:10403000FFF708FF207910B3E3781B0103F030038A
:10404000000400F4FE0003434FEA097202F0E0426C
:10405000134322780AB143F0020362780AB143F0B5
:104060000403A2780AB143F00803AB60E3882B6134
:104070002289638943EA02432B620024DEE02A207E
:104080000CF0B9FE0146AF4B984201D3B0FBF9F1F9
:104090002846FFF751FFCFE7AB49E3E0AB4BD3F83E
:1040A0008031B8F1000F40F0C28005EB04139B6C27
:1040B000C3F302335A1E012A24D9032B00F01881BE
:1040C000042B00F02281A14BD3F884214FEA124A3D
:1040D000D3F88C311B1403EB430307EE903AF8EE50
:1040E000E77A16E0994BD3F88031DAE7974BD3F8AB
:1040F0008431D6E7954BD3F88431D2E7934BD3F88C
:104100008031CEE7914BD3F880311FFA83FADFED8F
:10411000907A2AF4C0484FEA88481AF4004F40F0D9
:10412000028105EB04139B6CC3F3820B0BF10103BB
:104130004FF0010B0BFA03FBBBF1020F00F0F6800E
:10414000824AD2F890311BB208EE103AB8EEC88A13
:1041500078EE677A07EE10BAB8EEC77AF6EE006A24
:1041600027EE267AC7EE876AD2F888311BB208EEAE
:10417000103AB8EEC88A38EE268A04EB840307EBBF
:104180008303D878002800F0F58004EB840307EB64
:104190008303D3ED037AF8EE677ADFED756A87EE75
:1041A000A67AF7EE046AC6EE877A67EE887AB1EEF1
:1041B000008A67EE887A07EE10BAB8EEC77A9FEDEC
:1041C000656AC6EE076A9FED647A26EE877A77EE17
:1041D000877AB8F1004F0FD007EE10AAB8EEC77A71
:1041E000DFED5E6A27EE267ADFED5D6A77EEA67A6E
:1041F00067EE277A77EEE67AF5EEC07AF1EE10FAFE
:1042000040F3C980F1EE677AB6EE007A77EEC77AAE
:10421000FDEEE77A17EE903AB3F5003FC0F2C480A6
:104220006FEA58436FEA4343621D1201AB50C6F375
:104230000906631D05EB03135E600134494B9D4283
:1042400000F0BD8000239C4280F0BB8004EB84031F
:1042500007EB830217F823809668B8F1000F7FF40C
:104260001BAF4149CDF80090434600222846FFF796
:10427000A7FEB6B2864238BF064605EB0412936C21
:104280003A49194008F003030B4304EB840107EBA0
:1042900081014878800000F01C0003438878000307
:1042A00000F4E0400343C878000400F4E020034336
:1042B000087C400500F4600003430979090701F018
:1042C00040510B439364936CC3F30233013B042BC3
:1042D0003FF614AF01A252F823F000BF9D40000842
:1042E0009D400008E5400008ED400008F54000084A
:1042F000164BD3F880214FEA124AD3F88C311B14A5
:1043000008EE103AF8EEC87A03E7104BD3F8842190
:104310001FFA82FAD3F88C311B145B0008EE103AB6
:10432000F8EEC87AF5E648F00048FAE6074BD3F80D
:104330008C311BB208EE103AB8EEC88A38EE278AE4
:104340001BE700BF005A6202404B4C000080E00FA8
:1043500000000000000080430000204400000038FE
:10436000000000490040005980969800E08F18CF67
:1043700000007A440CF0D5FF07EE900AF8EE677A59
:104380005FED056A87EEA67AF7EE046AC6EE877AD5
:1043900068EE277A0BE7B6EE007A77EE677AFDEEE5
:1043A000E77A17EE903A37E713F5003F02DA48F460
:1043B000003339E7C3F3110343EA080334E7022368
:1043C00041E728460CF084FF03B0BDEC028BBDE84A
:1043D000F08F00BF10B50C4B4FF48002C3F8802063
:1043E000BFF34F8FBFF36F8F084B00245C65FF2234
:1043F0009A625C6021462020FEF7B4F82146212015
:10440000FEF7B0F810BD00BF00E100E0000004506E
:1044100029B9044A012303FA00F010607047024AE8
:10442000F8E700BF401004504020045010B5044687
:1044300001212020FEF796F801212120FEF792F8B5
:10444000114B01225A60227812069A606178A27894
:1044500042EA01429A61FF229A6200229A631A6438
:104460004FF000425A6503F500534FF0FF321A65D2
:10447000064A4FF48001C2F88011E3781B01DBB2D9
:1044800082F81633116010BD0000045000E100E016
:1044900070B50C46C3B201259D40214E06F5005370
:1044A0001D650968830003F1A04303F58823596063
:1044B000637B00EB400106EB01110B6694F80AC028
:1044C000E37A1B0543EA0C4394F80CC043EA4C53CF
:1044D000CB6522F003020A670CF086FE736D2B4356
:1044E0007365237A13B1336C2B433364637A1BB146
:1044F0000B4A936B2B4393632379A27942EA0342DD
:10450000074B03F500518A616679E27942EA064277
:1045100003F58054A2614D639D640CF06BFE70BD89
:104520000000045010B5C0B2012484400CF05CFEC1
:10453000044B5A6D22EA04025A659C620CF05AFE42
:1045400010BD00BF0000045010B5C0B2012484406B
:104550000CF04AFE084BDB6A234206D1064B5B6B2C
:1045600034EA030306D0002400E000240CF042FEED
:10457000204610BD0124F9E700000450064B4FF41B
:1045800080329A6603F51C3341F67132DA6303F523
:1045900000530122DA60704700900050074B41F64B
:1045A0007132DA6303F500520121D1600022DA632F
:1045B000A3F518334FF480329A6670470000035019
:1045C00070B50446C2F3062602F0070241B942EA7A
:1045D000062242F440220634094B43F8242070BDE1
:1045E000114630460CF0E7FE054630460CF0B5FEAD
:1045F00045EA00251234024B43F82450EFE700BF90
:1046000000800350014BD3F89400704700400050E5
:10461000074B4FF480325A6603F5E6239B69C3F3D8
:104620008512827003F03F0242701B0B03707047CB
:1046300000900050014B986CD96C70470080E00FDF
:104640000A4B9B6813F0020FFAD1084B5B6813F01A
:10465000020FF5D1054BDB69002BF1D1034B03F5BC
:10466000805101224A601A61704700BF00800A50E1
:104670000A4B5B68012B00D07047084B5B6813F056
:10468000010F03D0054BDB69002BF6D1034B02224F
:104690001A6103F5005301225A60EDE700800A50C9
:1046A00038B50546134B9B6813F0020FFAD1114B36
:1046B0005B6813F0020FF5D10E4BDC69002CF1D1D1
:1046C0005B68012B05D02B7803B10124094BDC601A
:1046D00038BDFFF7CDFF074B9B6813F0020FFAD1EF
:1046E000044B5B6813F0020FF5D1024BDB69002B22
:1046F000F1D1E8E700800A50D8B90B78D3B1012393
:104700004A6812B1127843EAC2034A78A2B102227F
:1047100013438A6812B1127843EA82138A786AB125
:1047200004221343CA6812B1127843EA4223044AAE
:10473000936470470023E3E70022E9E70022F0E7F3
:1047400000800A5008B9014B5964704700900A5024
:1047500008B9014B5964704700A00A5008B9014BD1
:104760001964704700A00A5010B9024B186C7047CA
:104770000020704700800A5048B911B1012903D0C8
:104780007047044BD86C7047024B186D704700207F
:10479000704700BF00800A5040B911B1012903D011
:1047A0007047034BDA647047014B1A65704700BFCE
:1047B00000800A5038B504460DF0D4FE064DA446DC
:1047C000BCE80F000FC5BCE80F000FC59CE8030054
:1047D00085E80300002038BDA012002047F6FF73D3
:1047E0009A4279D0032979D870B53E4B03EBC100CA
:1047F00090F802C0604613F83130012B24D0394BB9
:1048000003EBC1035C68002C6AD0B4F9003093421A
:1048100004DBB4F90230934200DC1346A288FF2A7D
:104820002ED000252826C8229E46D21A92FBF6F2E8
:104830002A4412B22B4B03EBC1014D78954201DDA6
:10484000002A32DA6A1E30E0264B03EBC103D87827
:10485000A0EB0C00002585420FD2431BA0EB5303B5
:10486000204C04EBC10EDEF8044034F913409442AE
:1048700001DC1D46EFE7581EEDE76044C0B22AE0B8
:10488000B4F90620B4F908600125CDE75C33164978
:10489000A1FB03139B09013212B2164695420FDDAC
:1048A00004EBC201898899420AD304EBC2018B68E8
:1048B000B1F9061001FB0E33002BE7DA0023E5E720
:1048C000721E04EBC20292889A4200D31A466245D5
:1048D00000D31046C0B270BDFF2070470020704763
:1048E0000020F8E7A0120020D34D621003296CD8F5
:1048F000384B13F83130012B2CD010B5354B03EB6E
:10490000C1035C68002C62D004F1040C314B03EB52
:10491000C1039B78934235D22E4B03EBC103DB7866
:10492000934232D92B4B03EBC10191F801E00EF118
:10493000FF3E5FFA8EFEA388FF2B29D0002373452C
:1049400028D2591C3CF8310091B2884222D301335D
:10495000DBB2F4E71F4B03EBC103DB78934200D2D9
:104960001A461C4800EBC1008078121AD2B21B1AFA
:104970009A4200DD0022174B03EBC1014B6833F96B
:1049800012007047B4F9020010BDB4F90000FBE753
:104990000123D4E74FF47A7101FB02F20CEBC30C54
:1049A000DCF80430D31ABCF9022002EBD27103EB1D
:1049B000610393FBF2F3B4F900009842E4DBB4F92D
:1049C00002009842E0DC18B2DEE703487047024874
:1049D000DAE700BFA01200200080FFFF08B50348FF
:1049E000FFF7E8FE01200DF0E0FD08BD3C380108AE
:1049F00030B583B004460DF0DAFD08B103B030BD28
:104A0000694620460DF0B0FD00B1FEE79DF800308C
:104A10000C4A12789342F1D0052B06D1642509493E
:104A200020460DF08EFD28B1FEE7204608F07AFA08
:104A30000546F4E7294620460DF098FD0028DDD014
:104A4000FEE700BF6008002070B58AB005460E463C
:104A50002822002168460EF085F8032300934FF4C6
:104A60001653ADF8063002228DF8082001238DF888
:104A700009308DF80A208DF80B30642303934FF42E
:104A80007A7306936946284608F092FA044680B97C
:104A90000C3E0D2E68D8DFE806F00713191F252BF2
:104AA00031373D43494F555B324928460DF031FEC1
:104AB0000446002C52D0002C58D120460AB070BDBC
:104AC0002D4928460DF025FE0446F2E72B492846DD
:104AD0000DF01FFE0446ECE7294928460DF019FEAB
:104AE0000446E6E7274928460DF013FE0446E0E7B2
:104AF000254928460DF00DFE0446DAE723492846ED
:104B00000DF007FE0446D4E7214928460DF001FECA
:104B10000446CEE71F4928460DF0FBFD0446C8E7D2
:104B20001D4928460DF0F5FD0446C2E71B492846FD
:104B30000DF0EFFD0446BCE7194928460DF0E9FDEC
:104B40000446B6E7174928460DF0E3FD0446B0E7F2
:104B5000154928460DF0DDFD0446AAE7FF21284649
:104B60000DF013FE0446A6E70124A4E728460DF045
:104B7000E9FDA2E76851010888510108A851010820
:104B8000C851010808520108E851010848520108BB
:104B90006852010888520108A8520108C852010849
:104BA000E8520108085301082853010800B587B0EE
:104BB000002301930293039304930593044B029300
:104BC00001A94FF0FF300DF096FD07B05DF804FB32
:104BD000006A180000B583B0094B93E80300009009
:104BE000ADF80410090C8DF806106846FEF740FB7E
:104BF0000620FEF77BFB002003B05DF804FB00BF3E
:104C00009439010810B582B0074A536F43F001038D
:104C10005367002400948DF804406846FEF710FAAC
:104C2000204602B010BD00BF0040005010B58AB051
:104C3000EC46224C0FCCACE80F000FCCACE80F00D8
:104C400094E803008CE80300012407942822002143
:104C500068460DF087FF0794194BD3F84C3113F4D5
:104C6000002F10D1164BD3F85041E4B2B4F1FF3FFE
:104C700013D08DF81940FDF76BFE24180FD4FF2CCC
:104C80000EDDFF240CE04FF0FF340E4B1B884FF677
:104C9000FF729342EAD01C46E8E70024E9E70024CB
:104CA0008DF818400848FCF7F9FB6846FDF772FDDF
:104CB0000120FDF753FE00200AB010BD9C39010809
:104CC0000080E00F0001E00FC01753026FF00403F3
:104CD00007E003F00F010A4A0A445021117601331C
:104CE0005BB24B2B09DC002BF3DB03F1604202F5D6
:104CF0006142502182F80013F1E70020704700BFA5
:104D0000FCEC00E010B501F0F3F8044608B12046D1
:104D100010BD01F079F94FF4167100FB01F101F5B6
:104D2000742101F23F210A4BA3FB0131890C094B8D
:104D30001960002308E0084A42F823100748026877
:104D40000A4402600133DBB2092BF4D9DFE700BF6C
:104D500083DE1B4300130020D4120020D012002059
:104D600008B5044B01221A700CF033FE024B186098
:104D700008BD00BFE9190020FC120020024B0122EF
:104D80001A70024B18607047EA190020CC120020FC
:104D900038B5304B1B781BB92F4A1278002A3ED009
:104DA0001BB12D4B1B78002B3AD12B4B1B78002BC2
:104DB0003CD1284B1B78002B44D00CF00AFE274B2B
:104DC0001B68C01A264B1860254B196801B90121D0
:104DD000234B196023480378234C54F82320A2EB7B
:104DE000010C224D2A68A2EB0C022A6044F8231021
:104DF00009321F49A1FB0242D2081E4C2260013336
:104E0000DBB20370A1FB0312D20802EB8202A3EB18
:104E10004203037000230F4A13700F4A137038BD0A
:104E200000230C4A13700C4A1370F8E70CF0D1FD04
:104E3000114B1B68984201D9002BBAD1064B0022B6
:104E40001A70ECE70CF0C5FD0B4B1B68C01A044B45
:104E50001860B9E7E9190020EA190020FC120020C7
:104E6000C8120020EB190020D4120020D01200201C
:104E7000CDCCCCCC00130020CC120020014B186804
:104E8000704700BF0013002010B4124C202384F898
:104E90002D33114B4FF480125A66104B03F500521C
:104EA0000F48506704215167106711674FF4005293
:104EB000C4F88421626003F58052506751679A6A92
:104EC00022F000729A629A6A42F410629A625DF865
:104ED000044B704700E100E0009000500040005A91
:104EE000010000A0024603E0002318463BB932B19E
:104EF000034B9B6D13F0050FF6D00123F5E77047C8
:104F00000040005A10B5174B1C6F14F004030AD16F
:104F100014F0010319D114F0005301D0124A1367A1
:104F2000002C19DB10BD104A136708239362FFF7AA
:104F30002FFF00F0B5FD00F093FD012001F082F994
:104F400004210020FFF70AFCE2E7074A1367FFF796
:104F50001FFF00F085FDDEE704F00044024B1C67F4
:104F6000E0E700BF0040005A0060005A10B5044658
:104F70000CF033F9024B1C600CF033F9002010BD2B
:104F80000413002010B50CF028F9034B1C680CF03A
:104F900028F9204610BD00BF0413002038B50C4688
:104FA0001546014640B12B462246064801F0D4FD85
:104FB000002805DD002038BDFFF7E4FF0146F2E7D9
:104FC0003720F8E7C9140108012900D9704710B546
:104FD000064B1C686C3C05E00521206C0CF011F9B7
:104FE000E46E6C3C14F16C0FF6D110BD0813002078
:104FF00038B50446236C9B6C13F0400FFAD00023A5
:105000001A46E16C94F84800FEF754FC00231A4657
:10501000616D94F85000FEF74DFC94F8683013F081
:10502000010F20D194F8683013F0020F23D1236CC4
:1050300003F5005301221A65236C03F50053042283
:105040001A650021206C0CF0DCF80021606CFDF783
:1050500089FA0F4D04F16C0128460BF02BFE2B68EA
:105060008BB1002038BD00231A46E16D94F858003A
:10507000FEF720FCD6E700231A46616E94F8600024
:10508000FEF718FCD3E7034800F0A8FCE9E700BFEF
:10509000081300200C130020F0B58BB016461C46F8
:1050A000109D0023069307930893099323790BB16E
:1050B0008DF8183001238DF81E3006ABF36163794B
:1050C00093B1012304930393814B0293814B01938A
:1050D000814B0093814B0A46294600F001FA0746AE
:1050E00020B138460BB0F0BD0223EBE7A3686B6438
:1050F000E3696B65237E85F850306369EB64237C3C
:1051000085F84830636AEB6594F8203085F85830AC
:10511000E36A6B6694F8283085F8603023682B6466
:1051200001213A20FDF71EFA012304226169207C47
:10513000FEF7C0FB01230222E169207EFEF7BAFBE5
:105140000023337085F868300121A068FDF70AFA62
:105150006379002B41D0624AD2F8283123F007034B
:1051600043F00103C2F82831A368562B02D0B3F5EF
:10517000A06F08D15A4AD2F8203223F0070343F037
:105180000103C2F82032314620680CF080F895F80F
:10519000683043F0040385F86830E268514B2632EA
:1051A00003EB421210215160217C6069E26841EA00
:1051B000004103EB4212C2F8DC14227EE069E16890
:1051C00042EA004203EB4113C3F8D4242379032BB2
:1051D0007BD8DFE803F0591A495101213620FDF749
:1051E000C1F9A368562B02D0B3F5A06F08D13C4A91
:1051F000D2F8203223F0070343F00303C2F8203231
:10520000314620680CF049F8C7E795F8683043F05C
:10521000010385F86830002600230222616A94F8B1
:105220002000FEF747FB94F82020616AE36842EA19
:1052300001425B0103F1A04303F5703341F2CC411D
:105240005A501EBB2B6C03F5805304221A650521AE
:1052500020680BF0D6FF244B1B688BB305F16C0163
:1052600021480BF023FD3CE795F8683043F002033A
:1052700085F868300126E4E795F8683043F00303C9
:1052800085F868300126C7E70026DAE70023042204
:10529000E16A94F82800FEF70DFBE368114AA63393
:1052A00002EB43130221596094F82830E06AE16868
:1052B00043EA004302EB411241F2D0415350C1E7AF
:1052C0000A490B4800F07AFBC8E7232709E700BF2B
:1052D000F14F000815150108F314010849150108DC
:1052E0000080005000C00350081300206808002010
:1052F0000C13002008B5044B18680023022219463D
:1053000080680AF001FF08BD2C09002010B586B0A6
:105310001446137A03EB43031B0103F1A04303F587
:105320008023DA6EE16823690B449A4216D06169E2
:10533000914215D38B1AABB90123637694F82D30C3
:105340004BB1002384F83530E36913212046984798
:10535000636A20469847002006B010BD0A46E6E77B
:105360009B1AE8E7049406490391002102910193F6
:1053700001230093636821680BF0F2FCEBE700BFA8
:105380000D53000830B589B0044600234376007AF7
:10539000FCF7F6FB207A00EB40031B0103F1A0436E
:1053A00003F58023DA6EE56823692B449A4219D00D
:1053B0006369934218D0012323760DF11F01FCF796
:1053C0006BFC9DF81F3043B30DF11E01207AFCF7F2
:1053D00037FC9DF81E3003BB22460021207AFFF7E0
:1053E00095FF1AE02A46E3E700232376656194F8E7
:1053F0002D3003B12563636A2046984723690494DE
:10540000084A0392002202920193012300936368E9
:105410002A462168207A0BF0A3FC207AFCF7D0FB07
:1054200009B030BD0D53000838B504460568FFF7D4
:10543000A9FD84424DD095F93630002B08DB03F0EE
:105440001F015B0901228A406033244941F823206F
:1054500095F93630002B0CDB03F01F015B090122AC
:105460008A4020331D4941F82320BFF34F8FBFF3FB
:105470006F8F95F93730002B08DB03F01F015B09B4
:1054800001228A406033154941F8232095F93730CD
:10549000002B0CDB03F01F015B0901228A40203343
:1054A0000E4941F82320BFF34F8FBFF36F8F287A47
:1054B000FCF7A6FB287AFCF707FBFCF7DFFA0023D2
:1054C00023606360A36023616361AB6A28469847E9
:1054D00038BD0020FFF74AFDADE700BF00E100E066
:1054E000F0B587B006460C4615461F4640220021FF
:1054F00020460DF037FB95E8030084E80300002305
:105500002376EB68E3602A69226163612A7D84F86F
:105510002C20AA7D84F82D202363012384F83430C5
:1055200084F83530E7610C9B23620D9B63620E9B10
:10553000A36295F9083084F8363095F9093084F87B
:10554000373034603F4B73603F4BB3603F4B336148
:105550003F4B73613F4BF360FCF7E0FA10B13E4AFA
:10556000904269D1002104F10800FCF755FA0028A7
:1055700064D13A4B3362012384F83C30384AB2613B
:10558000384AF2619DF8402084F83B209DF83C2089
:1055900084F83A20002284F8392084F83830697D74
:1055A00020460CF092F995F90930002B08DB03F046
:1055B0001F015B0901228A4060332B4941F82320F7
:1055C00095F90930002B07DB03F01F015B0901226D
:1055D0008A40254941F8232023690494234A0392F1
:1055E000002202920193012300936368E26821681C
:1055F000207A0BF0B5FB044610BB95F90830002B60
:1056000008DB03F01F015B0901228A406033164961
:1056100041F8232095F90830002B07DB03F01F0128
:105620005B0901228A40104941F823203046FFF7E8
:105630009DFC204607B0F0BD1024FAE71024F8E7DF
:105640001024F6E7C1180108E717010887160108BA
:105650008D16010829540008038000F05516010832
:10566000CB1801089316010800E100E00D53000873
:1056700070B4BFF35F8F2C4B5A6A22F480325A62A7
:10568000D3F8942022F00102C3F89420BFF34F8F87
:10569000BFF36F8F254B2648834242D020F01F0175
:1056A0002039214CD4F8C05085F0A002D2B26A4013
:1056B000C4F8C020B1F1005F0CD31E4D2A6841F040
:1056C0000101C4F898201C4EC4F89C60C4F8A010D6
:1056D00001322A60834210D01F3323F01F0343F0AE
:1056E0000303144802681049C1F89820C1F89C309F
:1056F000124BC1F8A03001320260BFF35F8F0A4B3A
:105700000522C3F894205A6A42F480325A62BFF3E9
:105710004F8FBFF36F8FBFF34F8FBFF36F8F70BC8F
:1057200070474FF08041BCE700ED00E0E00B002047
:10573000F00900201413002003000020E1FFFF3FC8
:10574000BFF34F8F0549CA6802F4E062044B13436C
:10575000CB60BFF34F8F00BFFDE700BF00ED00E05F
:105760000400FA05012000E00130022804D8431E9D
:10577000024AD35C002BF7D0C0B270472013002040
:10578000F8B506460F46032903D8DFE801F00A04FE
:105790000608002506E0042504E0102502E0402567
:1057A00000E00125032E05D8DFE806F002070A0D08
:1057B00045F002050B4B1C6809E045F00805F9E7C8
:1057C00045F02005F6E745F08005F3E7246844B18D
:1057D00063681A682A42F9D05B68394630469847B0
:1057E000F4E7F8BD1C130020134B1B7813B310B55E
:1057F000124B1B785BB9002000F04CFA68B9104BD3
:1058000001221A700F4B1A780F4B1A7010BD00F05E
:1058100019FA0A4B00221A70EDE700F047FA064B1E
:1058200000221A70074C01212078FFF7A9FF0123FD
:105830002370EBE7704700BFF3190020EE1900203A
:10584000F2190020EC190020F619002010B50BF019
:10585000C4FC0446164B1B78D3B1164B1B782BB9EE
:10586000144B01221A70144B00221A70134B1B7830
:1058700093B920460BF0B5FC012000F00BFA0BF0B9
:10588000ACFC04460B4B1B7863B9094B00221A7021
:1058900020460BF0A6FC10BD00F0D4F9074B002207
:1058A0001A70E6E700F002FA024B00221A70ECE7E9
:1058B000F3190020ED190020F2190020EE19002044
:1058C00038B50BF08AFC0446124B1B787BB900F00C
:1058D0000FFB0546D0B910480BF0E5F900F0A4FD28
:1058E0000E4B00221A6000F08FFB0D4B186000F089
:1058F00011F90CF03EF80B4B1860064B01221A70A0
:1059000020460BF06EFC0025284638BD20460BF0E3
:1059100068FCF9E7EF1900201C1300202813002071
:10592000241300201813002038B50138144B1B5CD9
:105930000A46A1B101210B4411490B5472B1114B1C
:105940001D78012D0AD9FFF70DFF0446012808D95B
:10595000032D09D00B4B1878A0420AD138BDFF2186
:10596000E9E7FFF773FFF5E70228F3D10CF007F83A
:10597000F0E72146FFF704FF024B1C70EEE700BF83
:1059800020130020EC19002010B504460BF025FC74
:10599000084B1B7864B101221344DBB2054A137033
:1059A000B3FA83F35B09044A13700BF01AFC10BDC1
:1059B000FF22F1E7F5190020F419002038B504465C
:1059C00041600BF00AFC0546214603480BF06EF9D6
:1059D00028460BF006FC38BD1C13002038B50546E0
:1059E0000BF0FBFB0446294603480BF063F9204605
:1059F0000BF0F7FB38BD00BF1C130020014B1868EB
:105A0000704700BF2813002038B50BF0E6FB0546B1
:105A1000094B1B78012B0AD9FFF7F0FF044600F071
:105A200063F9044428460BF0DCFB204638BD0BF03C
:105A3000D8FB0024F9E700BFEC190020064B1B68D7
:105A400003FB00F000F5742000F23F20034BA3FBA2
:105A50000030800C704700BF2413002083DE1B43FE
:105A600008B50A4B1B7813B1094B1B7803B908BD65
:105A700000F01CF90023064A1370064A1370012334
:105A8000054A1370054A1370F1E700BFEC190020B6
:105A9000F2190020F3190020F0190020F11900205C
:105AA000034B1B7813B1034B01221A70704700BFE0
:105AB000EC190020F2190020144B1B78834223D0EC
:105AC00010B582B0044600238DF8043002238DF80F
:105AD000053010B900238DF8053001A8FDF7A4FAB0
